:1000000067C000000EC1000049C10000C0C500006B
:100010001EC700007CC000007AC0000078C000004D
:1000200076C0000074C0000072C0000070C0000004
:100030006EC000006CC000006AC0000020C4000058
:1000400066C0000064C0000062C0000060C0000024
:100050005EC000005CC000005AC0000058C0000034
:1000600056C0000054C0000052C0000050C0000044
:100070004EC000004CC000004AC0000048C0000054
:1000800046C0000044C0000042C00000F405FD0569
:1000900018062C06370647065306640680068906AE
:1000A000A406B806C306D306DF06F00601074F070D
:1000B00065077F079307A507B707C207CE07E507C0
:1000C000FB07150829083B084D0858086408700804
:1000D00011241FBECFEFD0E1DEBFCDBF12E0A0E004
:1000E000B1E0ECE8F9E100E00BBF02C007900D922F
:1000F000A633B107D9F722E0A6E3B2E001C01D9212
:10010000A634B207E1F70E9489080C94C40C78CF9A
:100110008FEF8ABB8FE0809364000895E5E6F0E0FE
:1001200090819460908390819D7F90839081916075
:10013000908396EF9A95F1F78BBB86EF8A95F1F74E
:1001400080818E7F80830895E5E6F0E090819B7F3B
:10015000908390819D7F908390819160908396EFB2
:100160009A95F1F78BBB86EF8A95F1F780818E7FA8
:1001700080830895D3DF8CEC9CE10197F1F700C0F8
:1001800000000895CF93DF93EC018881882329F044
:100190002196F0DF89918111FCCFDF91CF910895F5
:1001A00081E0D2DF8CEC9CE10197F1F700C0000008
:1001B000089588E3C9DF8CEC9CE10197F1F700C05A
:1001C000000088E3C1DF8CEC9CE10197F1F700C0EF
:1001D000000088E3B9DF8CEC9CE10197F1F700C0E7
:1001E00000008EE0B1DF8CEC9CE10197F1F700C0DC
:1001F000000086E0A9DF8CEC9CE10197F1F700C0DC
:10020000000008958AEA80936A008FE089BF11BADE
:10021000789408958FE083BF83E681BF82E087BF33
:1002200008951F920F920FB60F9211240BB60F92E2
:100230002F933F934F935F936F937F938F939F93EE
:10024000AF93BF93EF93FF93809143029091440249
:10025000019663E070E00E94B90990934402809394
:1002600043021092400210923F029ADF1092410224
:1002700081E080934202FF91EF91BF91AF919F91F6
:100280008F917F916F915F914F913F912F910F903F
:100290000BBE0F900FBE0F901F9018951F920F92DC
:1002A0000FB60F9211245F936F937F938F939F9359
:1002B000AF93BF93809143029091440281309105A6
:1002C000B9F08230910511F1892B89F580913F02B7
:1002D00090914002019687709078992324F40197B9
:1002E000886F9F6F01969093400280933F021FC0DA
:1002F00080913F0290914002019669E070E00E9477
:10030000B9099093400280933F0211C080913D0251
:1003100090913E02892B39F481E090E090933E0267
:1003200080933D0204C010923E0210923D02BF91A4
:10033000AF919F918F917F916F915F910F900FBEC1
:100340000F901F9018952CDF80E8FECE0895F8944A
:10035000DFDE2FDF57DFF7DF78940895CF93DF9349
:10036000CDB7DEB729970FB6F894DEBF0FBECDBF6D
:1003700089E0ECE5F1E0DE01119601900D928A959D
:10038000E1F7CE010196FEDE2FEF8FEF99E52150C8
:1003900080409040E1F700C000003CDF29960FB696
:1003A000F894DEBF0FBECDBFDF91CF9108950F93BC
:1003B0001F93CF93DF93CDB7DEB7A0970FB6F89416
:1003C000DEBF0FBECDBF80E8BFDE80E1FE0131960B
:1003D000DF01982F1D929A95E9F77096DF011D9223
:1003E0008A95E9F780913A02882319F009E611E02D
:1003F00002C005E611E080914302909144028130F1
:10040000910509F4ACC08230910509F44FC1892BE4
:1004100009F0F5C180914202882399F086E0E2EB71
:10042000F1E0DE01119601900D928A95E1F78CE0E2
:10043000EDE6F1E0DE01519601900D928A95E1F72B
:1004400085C0E2E1F1E0A681B781AA0FBB1FA65BE0
:10045000BE4F11968C9111978F938C918F938381BE
:100460008F9382818F9385818F9384818F938181F4
:100470008F9380818F9389E791E09F938F93CE0133
:1004800001969F938F93A5D7E5E0F1E0A28161816A
:1004900020818DECA89F412D1124469546954695C7
:1004A000342F330F932F990F990F930FA91BB0E09F
:1004B000D096BF93AF9350E0405D5F4F5F934F93F3
:1004C000689F412D1124469546954695342F330F4C
:1004D000932F990F990F930F691B70E0605D7F4F09
:1004E0007F936F9350E0405D5F4F5F934F93289FE2
:1004F000812D1124869586958695382F330F932F5D
:10050000990F990F930F291B30E0205D3F4F3F93C8
:100510002F9390E0C0969F938F930380F481E02DFA
:10052000EE0FFF1FE85AFE4F81818F9380818F93DA
:1005300085E891E09F938F93CE0141969F938F938F
:1005400048D70FB6F894DEBF0FBECDBFCE010196DF
:1005500019DE80ECF9DDCE01419614DE50C18091A8
:100560004202882399F086E0E3E7F1E0DE0111968C
:1005700001900D928A95E1F780E1E8EEF1E0DE016D
:10058000519601900D928A95E1F787C0EAE0F1E07B
:10059000A681B781AA0FBB1FA65BBE4F11968C9197
:1005A00011978F938C918F9383818F9382818F93F7
:1005B00085818F9384818F9381818F9380818F93A5
:1005C00089E791E09F938F93CE0101969F938F933C
:1005D00000D7E0E0F1E0A281618120811F930F93B9
:1005E0008DECA89F412D1124469546954695342FB4
:1005F000330F932F990F990F930FA91BB0E0D0964B
:10060000BF93AF9350E0405D5F4F5F934F93689F00
:10061000412D1124469546954695342F330F932F3F
:10062000990F990F930F691B70E0605D7F4F7F9367
:100630006F9350E0405D5F4F5F934F93289F812DF4
:100640001124869586958695382F330F932F990F11
:10065000990F930F291B30E0205D3F4F3F932F935D
:1006600090E0C0969F938F930380F481E02DEE0F6E
:10067000FF1FE85AFE4F81818F9380818F9387E916
:1006800091E09F938F93CE0141969F938F93A1D634
:100690000FB6F894DEBF0FBECDBFCE01019672DD5E
:1006A00080EC52DDCE0141966DDDA9C08091420201
:1006B000882399F08AE0EEEEF1E0DE0111960190D8
:1006C0000D928A95E1F78CE0ECEAF1E0DE015196BB
:1006D00001900D928A95E1F788C080913D0290913A
:1006E0003E02892B51F48EE0E8EBF1E0DE01119639
:1006F00001900D928A95E1F709C08EE0E6ECF1E0F9
:10070000DE01119601900D928A95E1F7E6E3F2E0A1
:10071000A3817281618120818DECA89F412D1124DC
:10072000469546954695342F330F932F990F990F81
:10073000930FA91BB0E0D096BF93AF9350E0405DFC
:100740005F4F5F934F93789F412D112446954695B7
:100750004695342F330F932F990F990F930FE72F4F
:10076000E91BF0E0F096FF93EF9350E0405D5F4FA0
:100770005F934F93689F412D11244695469546956A
:10078000342F330F932F990F990F930F691B70E03C
:10079000605D7F4F7F936F9350E0405D5F4F5F934D
:1007A0004F93289F812D1124869586958695382F05
:1007B000330F932F990F990F930F291B30E0205D72
:1007C0003F4F3F932F9390E0C0969F938F9384ED7C
:1007D00091E09F938F93CE0141969F938F93F9D58C
:1007E0000FB6F894DEBF0FBECDBF80E8ADDCCE0102
:1007F0000196C8DC80ECA8DCCE014196C3DCA09653
:100800000FB6F894DEBF0FBECDBFDF91CF911F9121
:100810000F910895CF93DF938FEF88BBC8E0D0E0AE
:1008200088B3809588BB8FDD2FEF8FEF98E0215044
:1008300080409040E1F700C0000088B3809588BBFD
:1008400088EF91E09FDC2FEF8FEF98E02150804000
:100850009040E1F700C00000219711F710923B0291
:100860008FEF88BBDF91CF9108958295880F880F15
:10087000807C806869DC83E092E084CC08951F92DC
:100880000F920FB60F9211240BB60F922F933F9336
:100890004F935F936F937F938F939F93AF93BF9388
:1008A000EF93FF93809145028F5F803919F0809319
:1008B0004502D6C010924502E5E0F1E082818F5FEB
:1008C0008283209143023091440222303105D1F0DD
:1008D0009BEA899F912D112496959695292F220F99
:1008E000920F990F891761F09DEC899F912D11242A
:1008F00096959695292F220F220F920F891302C0E9
:100900008170B3DF809107018C3330F0E5E0F1E0D6
:1009100081818F5F81831282809106018C33A8F0E0
:10092000E5E0F1E0118280818F5F80838D3020F0DF
:1009300081E08093050109C08C3038F0E5E0F1E0FA
:10094000838194810196948383838091080190919F
:10095000090102975CF01092090110920801E2E18E
:10096000F1E084819581019695838483A2E1B1E0D1
:1009700012968D919C911397FC01EE0FFF1FE05D85
:10098000FE4F14964D915C9115972081318124176B
:10099000350744F4FD0121E030E0358324830196DE
:1009A0009383828380911401909115010D975CF0DF
:1009B000E2E1F1E081E090E09383828380819181A4
:1009C00001969183808380913A028823B1F19091BE
:1009D000050180910001981330C09091060180912B
:1009E000010198132AC09091070180910201981388
:1009F00024C0209116013091170180910E01909131
:100A00000F0128173907C9F42091140130911501FD
:100A100080910C0190910D012817390771F42091F4
:100A200012013091130180910A0190910B01281756
:100A3000390719F481E080933B02809142028823B8
:100A400079F0809141028F5F80934102813009F4F7
:100A50007ADC80914102823018F01092420273DCFD
:100A600080913D0290913E02892BC9F160913C0238
:100A70006F5F60933C0270E080E090E08BD323EEE8
:100A800038E34EED50E4EAD352D3CB016AE070E094
:100A900070D460933902643640F010923C02E6E371
:100AA000F2E0138282818F5F8283809138028C33DF
:100AB00030F0E6E3F2E081818F5F818312828091E2
:100AC00037028C3330F0E6E3F2E0118280818F5FF1
:100AD000808380913602843610F010923602FF91A6
:100AE000EF91BF91AF919F918F917F916F915F91A6
:100AF0004F913F912F910F900BBE0F900FBE0F9013
:100B00001F9018952091120130911301C901837033
:100B10009927892B31F4C90164E670E02AD4892B26
:100B200031F4C90160E971E024D4892B39F48DE1F5
:100B300090E0909335018093340106C08CE190E001
:100B4000909335018093340120910A0130910B017B
:100B5000C90183709927892B31F4C90164E670E0DB
:100B600008D4892B31F4C90160E971E002D4892BE2
:100B700039F48DE190E090931D0180931C0108955C
:100B80008CE190E090931D0180931C0108951F92C9
:100B90000F920FB60F9211240BB60F922F933F9323
:100BA0004F935F936F937F938F939F93AF93BF9375
:100BB000EF93FF938091430290914402813091051D
:100BC00009F493C08230910509F422C1892B09F000
:100BD0002BC1E0913F02F0914002E830F10508F0AE
:100BE00023C1EA5BFF4FD8C3E2E1F1E0808191814C
:100BF00001969183808386DF17C1E2E1F1E0848171
:100C000095810196958384830280F381E02DEE0F18
:100C1000FF1FE05DFE4F20813181281739070CF05E
:100C200003C181E090E09093170180931601FCC00E
:100C3000809114019091150101968D3091052CF44D
:100C40009093150180931401EFC081E090E09093A0
:100C5000150180931401E8C0E2E1F1E086819781FB
:100C6000019667E070E085D397838683DDC0E5E079
:100C7000F1E083819481019681709078992324F426
:100C800001978E6F9F6F019694838383CDC080916F
:100C900005018F5F8D3018F480930501C5C081E098
:100CA00080930501C1C0E5E0F1E081818F5F99E8A3
:100CB000899F912D11249295969597702CE3929F80
:100CC000801911248183B0C0E5E0F1E082818F5F5B
:100CD00099E8899F912D11249295969597702CE310
:100CE000929F8019112482839FC0E0913F02F0916E
:100CF0004002E930F10508F097C0E25BFF4F4CC3BA
:100D0000EAE0F1E080819181019691838083FADEAF
:100D10008BC0EAE0F1E0848195810196958384831C
:100D20000280F381E02DEE0FFF1FE05DFE4F20817A
:100D30003181281739070CF077C081E090E090935B
:100D40000F0180930E0170C080910C0190910D01F4
:100D500001968D3091052CF490930D0180930C0138
:100D600063C081E090E090930D0180930C015CC022
:100D7000EAE0F1E086819781019667E070E0F9D2C0
:100D80009783868351C0E0E0F1E0838194810196EE
:100D900081709078992324F401978E6F9F6F01964C
:100DA0009483838341C0809100018F5F8D3018F45C
:100DB0008093000139C081E08093000135C0E0E0FC
:100DC000F1E081818F5F99E8899F912D112492959F
:100DD000969597702CE3929F80191124818324C0EB
:100DE000E0E0F1E082818F5F99E8899F912D1124E5
:100DF0009295969597702CE3929F80191124828387
:100E000013C080913A028F5F817080933A020CC0C8
:100E1000E6E3F2E0108211821282138210923C0209
:100E200010923E0210923D02FF91EF91BF91AF915F
:100E30009F918F917F916F915F914F913F912F91F2
:100E40000F900BBE0F900FBE0F901F9018951F9222
:100E50000F920FB60F9211240BB60F922F933F9360
:100E60004F935F936F937F938F939F93AF93BF93B2
:100E7000EF93FF938091430290914402009721F0F9
:100E8000019709F497C032C1E0913F02F09140020E
:100E9000E830F10508F02AC1E95AFF4F7DC2809180
:100EA0001201909113010197883E23E092072CF0E4
:100EB000909313018093120106C082E098E0909312
:100EC0001301809312011EDE11C1E2E1F1E0848181
:100ED0009581019795838483181619060CF406C131
:100EE000DF010280F381E02DEE0FFF1FE05DFE4F7A
:100EF0008081918115969C938E931497F7C0809171
:100F00001401909115010197181619062CF490936D
:100F1000150180931401EAC08CE090E090931501D4
:100F200080931401E3C080911801909119010197F9
:100F30002AF09093190180931801D8C086E090E0C0
:100F40009093190180931801D1C08091080190916C
:100F5000090101972AF09093090180930801C6C006
:100F600081E090E09093090180930801BFC08091D7
:100F70000501815019F080930501B8C08CE0809381
:100F80000501B4C080910601811104C08BE38093F8
:100F90000601ACC0815080930601A8C08091070172
:100FA000811104C08BE380930701A0C0815080931E
:100FB00007019CC0E0913F02F0914002E930F10549
:100FC00008F094C0E15AFF4FE7C180910A01909167
:100FD0000B010197883E23E092072CF090930B01C0
:100FE00080930A0106C082E098E090930B01809301
:100FF0000A0188DD7BC0EAE0F1E0848195810197F8
:1010000095838483181619060CF470C0DF010280E2
:10101000F381E02DEE0FFF1FE05DFE4F8081918197
:1010200015969C938E93149761C080910C019091BA
:101030000D010197181619062CF490930D01809359
:101040000C0154C08CE090E090930D0180930C0152
:101050004DC0809110019091110101972AF0909359
:1010600011018093100142C086E090E0909311013D
:10107000809310013BC0809103019091040101977E
:101080002AF0909304018093030130C081E090E046
:10109000909304018093030129C080910001815045
:1010A00019F08093000122C08CE0809300011EC0E3
:1010B00080910101811104C08BE38093010116C06E
:1010C00081508093010112C080910201811104C0FE
:1010D0008BE3809302010AC081508093020106C015
:1010E00080913A028F5F817080933A02FF91EF9175
:1010F000BF91AF919F918F917F916F915F914F9130
:101100003F912F910F900BBE0F900FBE0F901F902D
:10111000189511BA8FEF87BB88BB19D91FD9F2DC9C
:1011200046D980913B028823D9F374DBF9CF04D0F0
:101130006894B1118DC0089570D088F09F5790F0D9
:10114000B92F9927B751A0F0D1F0660F771F881FEC
:10115000991F1AF0BA95C9F712C0B13081F077D053
:10116000B1E0089574C0672F782F8827B85F39F0F1
:10117000B93FCCF3869577956795B395D9F73EF44B
:1011800090958095709561957F4F8F4F9F4F0895F3
:10119000E89409C097FB3EF4909580957095619511
:1011A0007F4F8F4F9F4F9923A9F0F92F96E9BB27C7
:1011B0009395F695879577956795B795F111F8CF43
:1011C000FAF4BB0F11F460FF1BC06F5F7F4F8F4FAE
:1011D0009F4F16C0882311F096E911C0772321F0A4
:1011E0009EE8872F762F05C0662371F096E8862F3C
:1011F00070E060E02AF09A95660F771F881FDAF793
:10120000880F9695879597F9089557FD9058440F44
:10121000551F59F05F3F71F04795880F97FB991F55
:1012200061F09F3F79F08795089512161306140612
:10123000551FF2CF4695F1DF08C01616170618069F
:10124000991FF1CF86957105610508940895E8947A
:10125000BB2766277727CB0197F908950BD078C075
:1012600069D028F06ED018F0952309F05AC05FC0FD
:101270001124EECFCADFA0F3959FD1F3950F50E074
:10128000551F629FF001729FBB27F00DB11D639F38
:10129000AA27F00DB11DAA1F649F6627B00DA11DDE
:1012A000661F829F2227B00DA11D621F739FB00D84
:1012B000A11D621F839FA00D611D221F749F3327F4
:1012C000A00D611D231F849F600D211D822F762F8D
:1012D0006A2F11249F5750408AF0E1F088234AF08A
:1012E000EE0FFF1FBB1F661F771F881F91505040D6
:1012F000A9F79E3F510570F014C0AACF5F3FECF3F1
:10130000983EDCF3869577956795B795F795E795C1
:101310009F5FC1F7FE2B880F911D9695879597F9D2
:10132000089597F99F6780E870E060E008959FEF67
:1013300080EC089500240A9416161706180609066C
:10134000089500240A94121613061406050608953B
:10135000092E0394000C11F4882352F0BB0F40F4C3
:10136000BF2B11F460FF04C06F5F7F4F8F4F9F4F03
:10137000089597FB072E16F4009406D077FD08D049
:1013800014D007FC05D03EF4909581959F4F0895A9
:10139000709561957F4F0895EE0FFF1F0024001C8C
:1013A0000BBE0790F691E02D0994AA1BBB1B51E1DF
:1013B00007C0AA1FBB1FA617B70710F0A61BB70BC5
:1013C000881F991F5A95A9F780959095BC01CD016A
:1013D00008950F931F93CF93DF93CDB7DEB72E976A
:1013E0000FB6F894DEBF0FBECDBF0D891E8986E013
:1013F0008C831A8309838FEF9FE79E838D83AE01D1
:10140000475E5F4F6F89788DCE01019610D0EF81D6
:10141000F885E00FF11F10822E960FB6F894DEBF0C
:101420000FBECDBFDF91CF911F910F9108952F92E5
:101430003F924F925F926F927F928F929F92AF9264
:10144000BF92CF92DF92EF92FF920F931F93CF93B1
:10145000DF93CDB7DEB72B970FB6F894DEBF0FBE84
:10146000CDBF6C017B018A01FC011782168283814A
:1014700081FFBFC1CE0101963C01F6019381F701C6
:1014800093FD859193FF81917F01882309F4ADC17C
:10149000853239F493FD859193FF81917F018532E7
:1014A00021F4B60190E0D6D1E8CF912C212C312C3B
:1014B000FFE1F315D8F08B3279F038F4803279F00F
:1014C0008332A1F4232D20611DC08D3261F0803361
:1014D00069F4232D216016C0832D8260382EE32D00
:1014E000E4603E2E2AC0F32DF8601DC037FC2DC0ED
:1014F00020ED280F2A3040F08E32B9F436FC75C149
:10150000232D2064322E19C036FE06C08AE0989E34
:10151000200D1124922E11C0EAE02E9E200D1124E0
:10152000222EF32DF0623F2E08C08C3621F4832D3D
:101530008068382E02C0883641F4F70193FD85910A
:1015400093FF81917F018111B3CF982F9F7D955497
:10155000933028F40C5F1F4F9FE399830DC08336AF
:1015600031F0833771F0833509F055C020C0F801A0
:10157000808189830E5F1F4F88248394912C5301AF
:1015800012C02801F2E04F0E511CF801A080B1807A
:1015900036FE03C0692D70E002C06FEF7FEFC5011A
:1015A0004ED14C018201F32DFF773F2E15C028014B
:1015B00022E0420E511CF801A080B18036FE03C02B
:1015C000692D70E002C06FEF7FEFC5012DD14C0196
:1015D000F32DF0683F2E820133FC19C0822D90E07C
:1015E00088169906A0F4B60180E290E033D12A94DF
:1015F000F5CFF50137FC859137FE81915F01B6018A
:1016000090E028D121102A9421E0821A91088114B7
:10161000910479F7E1C0843611F0893639F5F80183
:1016200037FE07C060817181828193810C5F1F4FFB
:1016300008C060817181072E000C880B990B0E5F2A
:101640001F4FF32DFF763F2E97FF09C09095809591
:10165000709561957F4F8F4F9F4FF0683F2E2AE026
:1016600030E0A30133D1882E861844C0853731F489
:10167000232D2F7EB22E2AE030E025C0932D997FB6
:10168000B92E8F36C1F018F4883579F0AEC08037A6
:1016900019F0883721F0A9C0E92FE061BE2EB4FE11
:1016A0000DC0FB2DF460BF2E09C034FE0AC0292FE7
:1016B0002660B22E06C028E030E005C020E130E010
:1016C00002C020E132E0F801B7FE07C060817181FD
:1016D000828193810C5F1F4F06C06081718180E021
:1016E00090E00E5F1F4FA301F1D0882E8618FB2DCE
:1016F000FF773F2E36FE0DC0232D2E7FA22E89149C
:1017000058F434FE0BC032FC09C0832D8E7EA82E07
:1017100005C0B82CA32C03C0B82C01C0B92CA4FE62
:101720000FC0FE01E80DF11D8081803321F49A2D58
:10173000997EA92E09C0A2FE06C0B394B39404C03A
:101740008A2D867809F0B394A3FC10C0A0FE06C0D1
:10175000B21480F4280C922C9B180DC0B21458F4CB
:10176000B60180E290E076D0B394F8CFB21418F4CA
:101770002B1802C0982C212CA4FE0FC0B60180E3C8
:1017800090E068D0A2FE16C0A1FC03C088E790E0FC
:1017900002C088E590E0B6010CC08A2D867851F031
:1017A000A1FE02C08BE201C080E2A7FC8DE2B6017F
:1017B00090E050D0891430F4B60180E390E04AD034
:1017C0009A94F8CF8A94F301E80DF11D8081B60157
:1017D00090E040D08110F6CF222009F44ECEB60121
:1017E00080E290E037D02A94F7CFF6018681978186
:1017F00002C08FEF9FEF2B960FB6F894DEBF0FBE9F
:10180000CDBFDF91CF911F910F91FF90EF90DF90AF
:10181000CF90BF90AF909F908F907F906F905F9090
:101820004F903F902F900895FC01059061507040BB
:101830000110D8F7809590958E0F9F1F0895FC0199
:101840006150704001900110D8F7809590958E0FEF
:101850009F1F08950F931F93CF93DF93FB01238165
:1018600021FD03C08FEF9FEF2CC022FF16C04681E1
:101870005781248135814217530744F4A081B181F7
:101880009D012F5F3F4F318320838C9326813781C9
:101890002F5F3F4F3783268314C08B01EC01FB0180
:1018A0000084F185E02D0995892BE1F6D801169683
:1018B0008D919C911797019617969C938E931697EE
:1018C000CE01DF91CF911F910F910895FA01AA27C0
:1018D000283051F1203181F1E8946F936E7F6E5F73
:1018E0007F4F8F4F9F4FAF4FB1E03ED0B4E03CD021
:1018F000670F781F891F9A1FA11D680F791F8A1F04
:10190000911DA11D6A0F711D811D911DA11D20D06A
:1019100009F468943F912AE0269F11243019305D24
:101920003193DEF6CF010895462F4770405D419315
:10193000B3E00FD0C9F7F6CF462F4F70405D4A3362
:1019400018F0495D31FD4052419302D0A9F7EACF2A
:10195000B4E0A6959795879577956795BA95C9F759
:1019600000976105710508959B01AC010A2E06944C
:101970005795479537952795BA95C9F7620F731F05
:0C198000841F951FA01D0895F894FFCF50
:10198C000C000000000C00000000E4070100010046
:10199C000300E4070100010003001F001C001F00EE
:1019AC001E001F001E001F001F001E001F001E0037
:1019BC001F001F001C001F001E001F001E001F0028
:1019CC001F001E001F001E001F00140218021C0224
:1019DC002002240228022C023002330257656C6369
:1019EC006F6D6521004F6666004F6E20006E657846
:1019FC00743A20416C61726D0025642025642F259A
:101A0C006420257300257320256325633A256325FF
:101A1C00633A2563256300257320256325633A25E6
:101A2C006325633A25632563202573006E657874FE
:101A3C003A20436C6F636B00507265737320746F44
:101A4C002072756E2000507265737320746F207352
:101A5C00746F7000256325633A256325633A25630B
:101A6C0025633A25632563006E6578743A205374B8
:101A7C006F7077617463680057414B452055502156
:101A8C002121002020202020202020202020202068
:101A9C00202020004D6F6E00547565005765640062
:101AAC0054686900467269005361740053756E0086
:061ABC00414D00504D00F9
:00000001FF
